:100000000C9450010C9481010C9481010C94810199
:100010000C9481010C9481010C9481010C94810158
:100020000C9481010C9481010C9481010C94810148
:100030000C9481010C9481010C9481010C94810138
:100040000C9481010C9481010C9481010C94810128
:100050000C9481010C9481010C9481010C94BC02DC
:100060000C9481010C9481010C9481010C94810108
:100070000C9481010C9481010C9481010C948101F8
:100080000C9481010C9481010C9481010C948101E8
:100090000C9481010C9481010C9481010C94060351
:1000A0000C9481010C9481010C9481010C948101C8
:1000B0000C9481010C9481010C9481010C948101B8
:1000C0000C9481010C9481010C9481010C948101A8
:1000D0000C9481010C9481010C9481010C94810198
:1000E0000C948101DD01E001CF01D301D70117029A
:1000F000E401E801EE01F201F601FC010002040254
:1001000017020A020E0212020C9404020C94CF0190
:100110000C94D7010C94F2010C94F6010C940E028D
:100120000C9490020C9412020C9489020C9400021C
:100130000C94D3010C9483020C94A5020C94E80156
:100140000C94E0010C9417020C94FC010C94EE0149
:100150000C94E4010C9486020C9482020C94DD0150
:100160000C940A020C94B7020C94020500002200C1
:10017000250028002B002E00310034000201000071
:10018000050108010B010505050507050808080814
:10019000020202020A0A080804040404010101011F
:1001A000010101010303030303030303040707071A
:1001B0000C0C0C0C0C0C0C0C0202020206060606BF
:1001C000060606060B0B0B0B0B0B0B0B05050508A8
:1001D0000807070404040A0A0A0A0A0A010210208E
:1001E000200808102040102040800201020108046D
:1001F0000201010204081020408080402010080401
:100200000201800402018040201008040201080459
:10021000020101020408102040800102040810209D
:100220004080044080048008101020400408102002
:10023000408000000A0B02090C0D0E0807030401A0
:1002400000000000000000000000000000000000AE
:10025000000000000000000000000000000012117B
:10026000100000000000000000000000000000007E
:10027000000000000000000000000000000000007E
:100280000000000000000000044605484703025437
:10029000535251111049060709080F0E500002056C
:1002A00011241FBECFEFD1E2DEBFCDBF00E00CBFF7
:1002B00012E0A0E0B2E0E4E4FAE000E00BBF02C02C
:1002C00007900D92A231B107D9F722E0A2E1B2E086
:1002D00001C01D92A639B207E1F711E0C0E5D1E0F7
:1002E00000E006C021970109802FFE010E9413053E
:1002F000CF34D10780E00807A9F70E9438040C9496
:1003000020050C940000CF92DF92EF92FF920F93A2
:100310001F93CF93DF936C017A018B01C0E0D0E093
:10032000CE15DF0589F0D8016D918D01D601ED91D3
:10033000FC910190F081E02DC6011995892B11F4F3
:100340007E0102C02196ECCFC701DF91CF911F91B2
:100350000F91FF90EF90DF90CF900895362F90E0AF
:10036000FC01EE5CFD4F4491FC01E452FE4F2491F0
:10037000FC01EA57FE4F9491992309F46BC0442382
:1003800009F455C050E0FA013197E231F10508F067
:100390004EC08827EE58FF4F8F4F0C941305809165
:1003A00080008F7707C0809180008F7D03C080918F
:1003B0008000877F809380003AC084B58F7702C029
:1003C00084B58F7D84BD33C08091B0008F7703C02A
:1003D0008091B0008F7D8093B00029C08091900003
:1003E0008F7707C0809190008F7D03C0809190002F
:1003F000877F809390001BC08091A0008F7707C0FB
:100400008091A0008F7D03C08091A000877F8093A2
:10041000A0000DC0809120018F7707C0809120013E
:100420008F7D03C080912001877F80932001E92F79
:10043000F0E0EE0FFF1FE459FE4FA591B4918FB786
:10044000F894EC91311103C020952E2301C02E2B7E
:100450002C938FBF08953FB7F894809192029091AA
:100460009302A0919402B091950226B5A89B05C075
:100470002F3F19F00196A11DB11D3FBFBA2FA92F23
:10048000982F8827820F911DA11DB11DBC01CD01A0
:1004900042E0660F771F881F991F4A95D1F708958C
:1004A00085ED8093BC008091BC0084FDFCCF109250
:1004B0006702089540914102262F30E0240F311D3C
:1004C00021323105DCF4209167022430C9F4FC01AB
:1004D00080E090E0861758F4309141022191DC01D0
:1004E000A15EBD4FA30FB11D2C930196F3CF809158
:1004F0004102680F6093410280E0089581E0089511
:1005000082E0089508958FEF9FEF08958FEF9FEF9A
:1005100008958091120290E0919581959109089536
:10052000CF93DF931F921F92CDB7DEB7CB01642F1D
:1005300049835A830E945A024981842F5A81952FF8
:100540000F900F90DF91CF910895CF93DF931F927B
:10055000CDB7DEB7698361E0CE0101960E945A02F1
:1005600081E090E00F90DF91CF910895089580E0B1
:1005700090E008950E941B051F920F920FB60F92F4
:1005800011242F933F938F939F93AF93BF938091A9
:100590008E0290918F02A0919002B09191023091C1
:1005A0008D0223E0230F2D3720F40196A11DB11DEC
:1005B00005C026E8230F0296A11DB11D20938D02D0
:1005C00080938E0290938F02A0939002B093910239
:1005D0008091920290919302A0919402B091950221
:1005E0000196A11DB11D8093920290939302A09356
:1005F0009402B0939502BF91AF919F918F913F91DB
:100600002F910F900FBE0F901F9018951F920F9271
:100610000FB60F9211240BB60F922F933F934F9367
:100620005F936F937F938F939F93AF93BF93EF935A
:10063000FF938091B900887F803609F49CC068F5EB
:10064000883209F45BC090F4803109F454C038F466
:10065000882309F4F6C0883009F44DC0F6C088310B
:1006600009F44CC0803209F45DC0EFC0803409F455
:1006700068C048F4803309F455C0883309F0E5C0F8
:1006800080936602D8C0803509F44FC0883509F4DC
:100690005DC0883409F0D9C0D6C0883909F4C7C014
:1006A000A8F4883709F467C038F4883609F463C0C1
:1006B000803709F460C0C9C0883809F4B8C08039EF
:1006C00009F45FC0803809F0C0C05BC0803B09F40A
:1006D00086C038F4803A09F466C0883A09F47FC0CD
:1006E000B4C0803C09F4A7C0883C09F4A4C0883B8E
:1006F00009F48AC0AAC080918C0210C090918B022C
:1007000080918A02981770F5E0918B0281E08E0F3C
:1007100080938B02F0E0E659FD4F80818093BB000F
:1007200085EC86C0809366028EC0E0918B0281E0EA
:100730008E0F80938B028091BB00F0E0E659FD4F55
:10074000808390918B0280918A026EC0E0918B022F
:1007500081E08E0F80938B028091BB00F0E0E65920
:10076000FD4F80838091690281116DC081E080938B
:10077000680284EA61C083E0809367021092650298
:10078000CFCF80916502803208F051C0E0916502C0
:1007900081E08E0F809365028091BB00F0E0EB5BFF
:1007A000FD4F8083BDCF85EC8093BC001092670223
:1007B00080916502803230F4E0916502F0E0EB5BFD
:1007C000FD4F10826091650270E0E0914302F0916C
:1007D000440285E492E019951092650236C084E0E7
:1007E000809367021092420210924102E0913F0210
:1007F000F0914002199580914102811105C081E07C
:100800008093410210921F02E091420281E08E0F1C
:1008100080934202F0E0E15EFD4F80818093BB0057
:100820009091420280914102981708F479CF85E8AF
:100830008093BC000AC085EC8093BC0010926702D4
:1008400004C0109266020E945002FF91EF91BF9186
:10085000AF919F918F917F916F915F914F913F9158
:100860002F910F900BBE0F900FBE0F901F901895F9
:10087000789484B5826084BD84B5816084BD85B57B
:10088000826085BD85B5816085BD80916E00816087
:1008900080936E001092810080918100826080932D
:1008A000810080918100816080938100809180002F
:1008B0008160809380008091B10084608093B1005A
:1008C0008091B00081608093B0008091910082603F
:1008D000809391008091910081608093910080913C
:1008E00090008160809390008091A100826080934D
:1008F000A1008091A10081608093A1008091A0005F
:1009000081608093A0008091210182608093210109
:10091000809121018160809321018091200181607B
:100920008093200180917A00846080937A00809186
:100930007A00826080937A0080917A00816080934F
:100940007A0080917A00806880937A001092C100CA
:10095000C8E8D2E0FE01849160E00E94AE012196D9
:10096000F2E0CD39DF07B1F70CE912E090E0A92EF3
:1009700090E0B92EC1E0D0E0FE01E957FD4F84912F
:1009800061E00E94AE01C130D10521F0FE01EA57BD
:10099000FD4F01C0F801849160E00E94AE010E9409
:1009A0002B022B013C0188EEC82E83E0D82EE12CCF
:1009B000F12C0E942B02DC01CB0184199509A609B8
:1009C000B709883E9340A105B10558F0F1E0CF1A70
:1009D000D108E108F10828EE420E23E0521E611C06
:1009E000711CC114D104E104F10419F72196C63138
:1009F000D10509F0C1CFA114B10409F4BBCF0E9405
:100A00000000B8CFE3E1F2E01382128288EE93E0B7
:100A1000A0E0B0E084839583A683B78384E092E06E
:100A2000918380830895EE0FFF1F881F8BBF07906F
:100A3000F691E02D199481E090E0F8940C94200553
:040A4000F894FFCF58
:100A440000000000A5029002B70282028902860219
:020A540083021B
:00000001FF
