:100000000C9456010C9487010C9487010C94870181
:100010000C9487010C9487010C9487010C94870140
:100020000C9487010C9487010C9487010C94870130
:100030000C9487010C9487010C9487010C94870120
:100040000C9487010C9487010C9487010C94870110
:100050000C9487010C9487010C9487010C9408037D
:100060000C9487010C9487010C9487010C948701F0
:100070000C9487010C9487010C9487010C948701E0
:100080000C9487010C9487010C9487010C948701D0
:100090000C9487010C9487010C9487010C945203F3
:1000A0000C9487010C9487010C9487010C948701B0
:1000B0000C9487010C9487010C9487010C948701A0
:1000C0000C9487010C9487010C9487010C94870190
:1000D0000C9487010C9487010C9487010C94870180
:1000E0000C94870121022402130217021B025B02F7
:1000F00028022C02320236023A024002440248022E
:100100005B024E02520256020C949D010C94910126
:100110000C9448020C9417020C94B1020C943A020D
:100120000C9456020C9452020C9424020C9440023B
:100130000C942C020C94A2020C94DC020C9421026C
:100140000C9436020C9428020C941B020C945B0253
:100150000C9489010C944E020C9403030C9432020B
:100160000C9486050C94A1020C94C5020C944402D4
:100170000C9413020C94F1020000220025002800C8
:100180002B002E003100340002010000050108019F
:100190000B0105050505070508080808020202020B
:1001A0000A0A080804040404010101010101010113
:1001B0000303030303030303040707070C0C0C0CDE
:1001C0000C0C0C0C020202020606060606060606C7
:1001D0000B0B0B0B0B0B0B0B050505080807070496
:1001E00004040A0A0A0A0A0A010210202008081058
:1001F0002040102040800201020108040201010297
:10020000040810204080804020100804020180046F
:1002100002018040201008040201080402010102CA
:10022000040810204080010204081020408004408F
:100230008004800810102040040810204080000036
:100240000A0B02090C0D0E08070304010000000050
:10025000000000000000000000000000000000009E
:10026000000000000000000000001211100000005B
:10027000000000000000000000000000000000007E
:10028000000000000000000000000000000000006E
:100290000000000004460548470302545352511120
:1002A0001049060709080F0E5000860511241FBECD
:1002B000CFEFD1E2DEBFCDBF00E00CBF12E0A0E087
:1002C000B2E0ECE4FBE000E00BBF02C007900D924F
:1002D000A231B107D9F722E0A2E1B2E001C01D923C
:1002E000AF3BB207E1F711E0C6E5D1E000E006C0A0
:1002F00021970109802FFE010E949705C535D1077E
:1003000080E00807A9F70E9484040C94A4050C94CB
:1003100000008091A80290E02091A702821B910921
:100320000895E0913302F0913402309729F0109251
:10033000A4021092A30219940895CF93DF93AC0105
:10034000E091A502F091A6023097F1F09091A702FA
:100350008091A8029817C0F090E0292F30E026176E
:10036000370754F4D901AD5EBD4FEA01C20FD31F68
:1003700088818C939F5FF1CF1092A7026093A802AF
:10038000CB01DF91CF911994DF91CF910895CF9256
:10039000DF92EF92FF920F931F93CF93DF936C0145
:1003A0007A018B01C0E0D0E0CE15DF0589F0D801DD
:1003B0006D918D01D601ED91FC910190F081E02DC0
:1003C000C6011995892B11F47E0102C02196ECCF4C
:1003D000C701DF91CF911F910F91FF90EF90DF90B8
:1003E000CF900895362F90E0FC01E25CFD4F4491E0
:1003F000FC01E851FE4F2491FC01EE56FE4F949112
:10040000992309F46BC0442309F455C050E0FA0164
:100410003197E231F10508F04EC08827EE58FF4FC2
:100420008F4F0C949705809180008F7707C0809143
:1004300080008F7D03C080918000877F8093800043
:100440003AC084B58F7702C084B58F7D84BD33C038
:100450008091B0008F7703C08091B0008F7D809332
:10046000B00029C0809190008F7707C080919000E4
:100470008F7D03C080919000877F809390001BC088
:100480008091A0008F7707C08091A0008F7D03C06E
:100490008091A000877F8093A0000DC080912001F3
:1004A0008F7707C0809120018F7D03C0809120014C
:1004B000877F80932001E92FF0E0EE0FFF1FE858BF
:1004C000FE4FA591B4918FB7F894EC91311103C010
:1004D00020952E2301C02E2B2C938FBF089585EDE0
:1004E0008093BC008091BC0084FDFCCF1092A202DE
:1004F000089540915502262F30E0240F311D2132FE
:100500003105DCF42091A2022430C9F4FC0180E022
:1005100090E0861758F4309155022191DC01AB5CD4
:10052000BD4FA30FB11D2C930196F3CF80915502BF
:10053000680F6093550280E0089581E0089582E09D
:1005400008950895E091A7028091A802E81730F479
:10055000F0E0ED5EFD4F808190E008958FEF9FEF1A
:1005600008959091A7028091A802981750F4E92F5E
:10057000F0E0ED5EFD4F208130E09F5F9093A70299
:1005800002C02FEF3FEFC9010895CF93E4E9F2E0F5
:10059000C4918AEA92E00E94B102809312028130F3
:1005A00011F461E003C0811105C060E08C2FCF9190
:1005B0000C94F201CF910895CF93DF931F921F9275
:1005C000CDB7DEB7CB01642F49835A830E947902ED
:1005D0004981842F5A81952F0F900F90DF91CF91F1
:1005E0000895CF93DF931F92CDB7DEB7698361E0A3
:1005F000CE0101960E94790281E090E00F90DF9198
:10060000CF910895089580E090E008950E949F059D
:100610001F920F920FB60F9211242F933F938F9337
:100620009F93AF93BF938091BB029091BC02A09126
:10063000BD02B091BE023091BA0223E0230F2D37E4
:1006400020F40196A11DB11D05C026E8230F0296D6
:10065000A11DB11D2093BA028093BB029093BC02EE
:10066000A093BD02B093BE028091B6029091B702F2
:10067000A091B802B091B9020196A11DB11D80935D
:10068000B6029093B702A093B802B093B902BF919B
:10069000AF919F918F913F912F910F900FBE0F902F
:1006A0001F9018951F920F920FB60F9211240BB640
:1006B0000F922F933F934F935F936F937F938F93FB
:1006C0009F93AF93BF93EF93FF938091B900887F7F
:1006D000803609F49CC068F5883209F45BC090F458
:1006E000803109F454C038F4882309F4F6C0883006
:1006F00009F44DC0F6C0883109F44CC0803209F4C9
:100700005DC0EFC0803409F468C048F4803309F458
:1007100055C0883309F0E5C080937802D8C0803591
:1007200009F44FC0883509F45DC0883409F0D9C098
:10073000D6C0883909F4C7C0A8F4883709F467C05F
:1007400038F4883609F463C0803709F460C0C9C042
:10075000883809F4B8C0803909F45FC0803809F0DE
:10076000C0C05BC0803B09F486C038F4803A09F40D
:1007700066C0883A09F47FC0B4C0803C09F4A7C0C1
:10078000883C09F4A4C0883B09F48AC0AAC08091BF
:100790009B0210C090919A0280919902981770F56F
:1007A000E0919A0281E08E0F80939A02F0E0E75880
:1007B000FD4F80818093BB0085EC86C080937802DA
:1007C0008EC0E0919A0281E08E0F80939A02809110
:1007D000BB00F0E0E758FD4F808390919A02809132
:1007E00099026EC0E0919A0281E08E0F80939A0286
:1007F0008091BB00F0E0E758FD4F80838091A1021B
:1008000081116DC081E08093A00284EA61C083E021
:100810008093A20210927702CFCF8091770280322C
:1008200008F051C0E091770281E08E0F809377024B
:100830008091BB00F0E0E95AFD4F8083BDCF85EC8D
:100840008093BC001092A20280917702803230F433
:10085000E0917702F0E0E95AFD4F10826091770253
:1008600070E0E0919C02F0919D0287E592E019957D
:100870001092770236C084E08093A2021092560252
:1008800010925502E0919E02F0919F02199580917D
:100890005502811105C081E0809355021092350206
:1008A000E091560281E08E0F80935602F0E0EB5CFF
:1008B000FD4F80818093BB0090915602809155023C
:1008C000981708F479CF85E88093BC000AC085ECBE
:1008D0008093BC001092A20204C0109278020E9481
:1008E0006F02FF91EF91BF91AF919F918F917F9197
:1008F0006F915F914F913F912F910F900BBE0F9091
:100900000FBE0F901F901895789484B5826084BDB7
:1009100084B5816084BD85B5826085BD85B5816003
:1009200085BD80916E00816080936E001092810081
:10093000809181008260809381008091810081603C
:1009400080938100809180008160809380008091FD
:10095000B10084608093B1008091B0008160809389
:10096000B00080919100826080939100809191000D
:1009700081608093910080919000816080939000CD
:100980008091A10082608093A1008091A10081608C
:100990008093A1008091A00081608093A00080914D
:1009A00021018260809321018091210181608093E7
:1009B00021018091200181608093200180917A0043
:1009C000846080937A0080917A00826080937A00BC
:1009D00080917A00816080937A0080917A008068AB
:1009E00080937A001092C1001092A7021092A80280
:1009F0001092A4021092A3021092A20281E08093AE
:100A0000A1021092A00261E084E10E94F20161E083
:100A100085E10E94F2018091B9008E7F8093B90038
:100A20008091B9008D7F8093B90088E48093B800ED
:100A300085E48093BC0081E991E090939F028093CC
:100A40009E028DE991E090939D0280939C0284E147
:100A50008093BA008CE08093B80085EC92E090938C
:100A6000A6028093A502C4E9D2E0FE01849160E071
:100A70000E94F2012196F2E0C93ADF07B1F780E067
:100A8000C82E80E0D82E8091A80290E02091A70285
:100A9000821B9109049731F0C114D104A1F30E9483
:100AA0000000F1CFC0E0D0E08AEA92E00E94B102FB
:100AB0008093A9027E01A12CB12C8C0111278FEF0C
:100AC000E81AF80AE6E1EE16F104A4F4F501EC0FD9
:100AD000FD1FEC56FD4F849198010A2C02C03595FC
:100AE00027950A94E2F720FF02C061E001C060E0B0
:100AF0000E94F201FFEFAF1ABF0A89E0A816B10405
:100B0000F1F62996CD32D10579F6C6CFEAEAF2E0C0
:100B10001382128288EE93E0A0E0B0E08483958394
:100B2000A683B78384E092E0918380830895EE0FDB
:100B3000FF1F881F8BBF0790F691E02D199481E06D
:0C0B400090E0F8940C94A405F894FFCF0A
:100B4C0000000000F102DC020303A1028901B102E2
:020B5C00A202F3
:00000001FF
